:100000000C9434000C943E000C943E000C943E0082
:100010000C943E000C943E000C943E000C943E0068
:100020000C943E000C943E000C943E000C943E0058
:100030000C943E000C943E000C943E000C943E0048
:100040000C943E000C943E000C943E000C943E0038
:100050000C943E000C943E000C943E000C943E0028
:100060000C943E000C943E0011241FBECFEFD8E04C
:10007000DEBFCDBF0E9440000C9476000C940000BF
:100080008FE084B980EC8AB915B81BB880918100E3
:1000900081608093810080E090E020918400309125
:1000A000850026333248E8F01092850010928400D3
:1000B00001968E31910529F42A985F98299A289AF9
:1000C000EACF8431910529F42B985E985F9A2A9A99
:1000D000E4CF8A30910509F7299828985E9A2B9ADF
:1000E000DCCF2091840030918500D7CFF894FFCFEA
:00000001FF
