:100000000C9434000C943E000C943E000C943E0082
:100010000C943E000C943E000C943E000C943E0068
:100020000C943E000C943E000C943E000C943E0058
:100030000C943E000C943E000C943E000C943E0048
:100040000C943E000C943E000C943E000C943E0038
:100050000C943E000C943E000C943E000C943E0028
:100060000C943E000C943E0011241FBECFEFD8E04C
:10007000DEBFCDBF0E9440000C947B000C940000BA
:100080003D9A88B190E2892788B9209A2198299AC7
:1000900020E030E080E090E040E050E060E271E09D
:1000A00019991AC00196853691051CF420E030E0BC
:1000B000F7CF4115510519F020E030E019C088B1A3
:1000C000862788B985B1872785B920E030E080E0B0
:1000D00090E041E050E0E4CF2F5F3F4F25363105FF
:1000E0003CF020E030E080E090E040E050E0D8CF0D
:0A00F00080E090E0D5CFF894FFCF38
:00000001FF
