:100000000C9434000C9440000C943E000C943E0080
:100010000C943E000C943E000C943E000C943E0068
:100020000C943E000C943E000C943E000C943E0058
:100030000C943E000C943E000C943E000C943E0048
:100040000C943E000C943E000C943E000C943E0038
:100050000C943E000C943E000C943E000C943E0028
:100060000C943E000C943E0011241FBECFEFD8E04C
:10007000DEBFCDBF0E9452000C9463000C940000C0
:100080001F920F920FB60F9211248F939F9385B1F9
:1000900091E0892785B99F918F910F900FBE0F90A6
:1000A0001F901895789481E084B91AB85A9A809173
:1000B00069008D7F809369008091690081608093E1
:0A00C0006900E89AFFCFF894FFCF23
:00000001FF
